{
  "_format": "hh-sol-artifact-1",
  "contractName": "gor",
  "sourceName": "contracts/gor.sol",
  "abi": [
    {
      "inputs": [],
      "payable": false,
      "stateMutability": "nonpayable",
      "type": "constructor"
    },
    {
      "constant": false,
      "inputs": [
        {
          "internalType": "string",
          "name": "_name",
          "type": "string"
        },
        {
          "internalType": "uint256",
          "name": "_productno",
          "type": "uint256"
        },
        {
          "internalType": "uint256",
          "name": "_pq",
          "type": "uint256"
        }
      ],
      "name": "Purchase",
      "outputs": [],
      "payable": true,
      "stateMutability": "payable",
      "type": "function"
    },
    {
      "constant": true,
      "inputs": [
        {
          "internalType": "address",
          "name": "",
          "type": "address"
        }
      ],
      "name": "dt",
      "outputs": [
        {
          "internalType": "string",
          "name": "name",
          "type": "string"
        },
        {
          "internalType": "uint256",
          "name": "pno",
          "type": "uint256"
        },
        {
          "internalType": "uint256",
          "name": "quantity",
          "type": "uint256"
        },
        {
          "internalType": "uint256",
          "name": "amount",
          "type": "uint256"
        },
        {
          "internalType": "uint256",
          "name": "purchase_time",
          "type": "uint256"
        }
      ],
      "payable": false,
      "stateMutability": "view",
      "type": "function"
    },
    {
      "constant": true,
      "inputs": [],
      "name": "price1",
      "outputs": [
        {
          "internalType": "uint256",
          "name": "",
          "type": "uint256"
        }
      ],
      "payable": false,
      "stateMutability": "view",
      "type": "function"
    },
    {
      "constant": true,
      "inputs": [],
      "name": "price2",
      "outputs": [
        {
          "internalType": "uint256",
          "name": "",
          "type": "uint256"
        }
      ],
      "payable": false,
      "stateMutability": "view",
      "type": "function"
    },
    {
      "constant": true,
      "inputs": [],
      "name": "price3",
      "outputs": [
        {
          "internalType": "uint256",
          "name": "",
          "type": "uint256"
        }
      ],
      "payable": false,
      "stateMutability": "view",
      "type": "function"
    },
    {
      "constant": true,
      "inputs": [],
      "name": "price4",
      "outputs": [
        {
          "internalType": "uint256",
          "name": "",
          "type": "uint256"
        }
      ],
      "payable": false,
      "stateMutability": "view",
      "type": "function"
    }
  ],
  "bytecode": "0x608060405266024f2beb1aa0006000556601e2083dbb20006001556601902d7bb380006002556601353a6b39400060035534801561003c57600080fd5b50600480546001600160a01b0319163317905561052c8061005e6000396000f3fe6080604052600436106100555760003560e01c8063043604fc1461005a57806304a47afd1461012157806327378684146101ce57806327a3181d146101f55780636caf25ce1461020a578063d778c9111461021f575b600080fd5b34801561006657600080fd5b5061008d6004803603602081101561007d57600080fd5b50356001600160a01b0316610234565b6040518080602001868152602001858152602001848152602001838152602001828103825287818151815260200191508051906020019080838360005b838110156100e25781810151838201526020016100ca565b50505050905090810190601f16801561010f5780820380516001836020036101000a031916815260200191505b50965050505050505060405180910390f35b6101cc6004803603606081101561013757600080fd5b81019060208101813564010000000081111561015257600080fd5b82018360208201111561016457600080fd5b8035906020019184600183028401116401000000008311171561018657600080fd5b91908080601f01602080910402602001604051908101604052809392919081815260200183838082843760009201919091525092955050823593505050602001356102ed565b005b3480156101da57600080fd5b506101e361041a565b60408051918252519081900360200190f35b34801561020157600080fd5b506101e3610420565b34801561021657600080fd5b506101e3610426565b34801561022b57600080fd5b506101e361042c565b60056020908152600091825260409182902080548351601f600260001961010060018616150201909316929092049182018490048402810184019094528084529092918391908301828280156102cb5780601f106102a0576101008083540402835291602001916102cb565b820191906000526020600020905b8154815290600101906020018083116102ae57829003601f168201915b5050505050908060010154908060020154908060030154908060040154905085565b336000908152600560209081526040909120845161030d9286019061045c565b50336000908152600560205260409020600281018290556001808201849055346003830155426004909201919091558214156103995761034f81600054610432565b341461035a57600080fd5b6004546040516001600160a01b03909116903480156108fc02916000818181858888f19350505050158015610393573d6000803e3d6000fd5b50610415565b81600214156103ae5761034f81600154610432565b81600314156103c35761034f81600254610432565b6103cf81600354610432565b34146103da57600080fd5b6004546040516001600160a01b03909116903480156108fc02916000818181858888f19350505050158015610413573d6000803e3d6000fd5b505b505050565b60035481565b60015481565b60005481565b60025481565b600081158061044d5750508082028282828161044a57fe5b04145b61045657600080fd5b92915050565b828054600181600116156101000203166002900490600052602060002090601f016020900481019282601f1061049d57805160ff19168380011785556104ca565b828001600101855582156104ca579182015b828111156104ca5782518255916020019190600101906104af565b506104d69291506104da565b5090565b6104f491905b808211156104d657600081556001016104e0565b9056fea265627a7a72315820fac395bc111c0fbee72d2472b38105a5aee2928ba9e500657c0431fb894aafe764736f6c634300050f0032",
  "linkReferences": {},
  "deployedLinkReferences": {}
}